:020000040800F2
:100000009805002001010008090100080B01000803
:100010000D0100080F010008110100080000000098
:1000200000000000000000000000000013010008B4
:100030001501000800000000170100081901000860
:100040001B0100081B0100081B0100081B01000820
:10005000D90B00081B010008490A00081B01000811
:100060001B0100081B0100081B0100081B01000800
:100070001B0100081B0100081B0100081B010008F0
:100080001B0100081B0100081B0100081B010008E0
:100090001B0100081B0100081B0100081B010008D0
:1000A0001B010008C51A00081B0100081B010008FD
:1000B0001B0100081B0100081B0100081B010008B0
:1000C0001B0100081B0100081B0100081B010008A0
:1000D0001B010008CD1B0008091C0008451C000876
:1000E0001B0100081B0100081B010008DFF80CD0F1
:1000F00000F0B6FB00480047512D0008980500208D
:100100000648804706480047FEE7FEE7FEE7FEE7B1
:10011000FEE7FEE7FEE7FEE7FEE7FEE7651A0008FA
:10012000ED00000840EA01039B0703D009E008C97D
:10013000121F08C0042AFAD203E011F8013B00F8AC
:10014000013B521EF9D27047D2B201E000F8012BF8
:10015000491EFBD270470022F6E710B513460A4647
:1001600004461946FFF7F0FF204610BD30B505469E
:100170002A460B4612F8010B13F8014B08B1A042B6
:10018000F8D01CB1002802D06D1CF1E7284630BD24
:10019000CAB2401E10F8011F8A4202D00029F9D1CC
:1001A000002070472DE9F04791460F4680460446EF
:1001B000002614F8015B2DB100F022F90068405DC3
:1001C000C007F6D12B2D02D02D2D18D0641E4A4623
:1001D0003946204600F018F927B13968A14201D10B
:1001E000C7F8008071054FF002040BD5404200288B
:1001F00003DD01F04FFE0460A007BDE8F08746F480
:100200008066E4E70028F8DA01F044FE04606FF04D
:100210000040F2E72DE9F04D81EA030404F0004BC1
:1002200021F0004514464FF0000A23F0004150EA47
:10023000050220D054EA01021DD0C5F30A57024638
:10024000C5F31303C1F31300C1F30A5640F480153C
:1002500043F48013A7EB0608101BD64608F2FD38BE
:1002600073EB050002D308F1010801E092185B412D
:10027000B8F1000F03DA00200146BDE8F08D002040
:100280004FF48011064684460EE0171B73EB0507FA
:1002900005D3121B63EB050306434CEA010C490826
:1002A0004FEA300092185B4150EA0107EDD152EA63
:1002B000030012D082EA040083EA0501084305D056
:1002C000101BAB4106D20122002306E000224FF0B2
:1002D000004302E06FF0010253101AEB06004CEBF2
:1002E000085110EB0A0041EB0B01BDE8F04D00F0A6
:1002F00011B90EB5C10F80EAE0700844CA070021A9
:1003000040F233438DE80E000A460B4600F011F927
:1003100003B000BD00F0004230F000400AD0C10D33
:1003200001F56071C0F3160042EA0151C2084007AE
:100330001143704700200146704701F0004330B47C
:1003400021F0004150EA010206D00A0DA2F56072C8
:10035000C1F31301002A02DC30BC00207047440FB7
:1003600044EAC104C100E01830BC00EBC25000F008
:100370009AB830B50B46014600202022012409E03E
:1003800021FA02F59D4205D303FA02F5491B04FA4E
:1003900002F52844151EA2F10102F1DC30BD2DE961
:1003A000F05F0546002092469B46884606468146F9
:1003B00040241BE0284641464746224600F071FA99
:1003C00053465A46C01A914110D311461846224648
:1003D00000F058FA2D1A67EB01084F46224601201B
:1003E000002100F04FFA17EB00094E41201EA4F146
:1003F0000104DFDC484631462A464346BDE8F09F0B
:1004000000487047D82F00082DE9F05F8246007839
:10041000002715468B460AF10104B946302801D061
:100420009DB113E014F8010B0127782803D0582858
:1004300001D045B10AE00DB1102D07D100271025DC
:1004400014F8010B02E0082500E00A250026B0465A
:100450000EE005FB080005FB06F1012701EB104645
:100460001FFA80F8B6F5803F00D3B94614F8010BA7
:10047000294600F038FA0028EBDABBF1000F05D06E
:100480000FB1641E00E05446CBF80040B9F1000FF4
:1004900006D001F0FFFC02210160C81EBDE8F09FFC
:1004A00048EA0640FAE70029A8BF7047401C490007
:1004B00008BF20F00100704710B4B0FA80FC00FAC9
:1004C0000CF050EA010404BF10BC704749B1CCF1F4
:1004D000200421FA04F411FA0CF118BF0121214380
:1004E0000843A3EB0C01CB1D4FEA00614FEA10203B
:1004F00042BF002010BC704700EBC35010440029DD
:10050000A4BF10BC7047401C490008BF20F0010088
:1005100010BC704710B5141E73F1000408DA401CBB
:1005200041F1000192185B411A4301D120F0010012
:1005300010BD2DE9F04D92469B4611B1B1FA81F202
:1005400002E0B0FA80F22032904600F09BF90446B7
:100550000F4640EA0A0041EA0B0153465A46084357
:1005600013D0114653EA010019D0C8F14002504699
:1005700000F097F905460E4650465946424600F0AF
:1005800081F9084305D0012004E020463946BDE842
:10059000F08D0020054346EAE0762C4337430A9865
:1005A0006305E40AA0EB08000022FD0A44EA475470
:1005B0000A3002D500200146E9E70105101969411A
:1005C000DDE9084500196941BDE8F04DA2E72DE9D4
:1005D000FE4F804681EA0300C00F0C46009021F0D8
:1005E000004123F00045B8EB0200A94105D2404686
:1005F000214690461C460B46024623F0004010431D
:1006000047D0270DC7F30A00C3F30A510290401ADE
:10061000019040286BDAC3F3130040F4801B00986C
:10062000924620B10023D2EB030A63EB0B0B019837
:100630005946C0F14002504600F024F906460D46E6
:1006400050465946019A00F03CF910EB0800614110
:10065000002487EA115284EAE7731A4340D0009AD3
:1006600062B3019A012A4FEA075215DC001B61EBC5
:1006700002014FF0004202EA0752CDE90042001C9D
:1006800041F5801132462B46FFF753FF03B0BDE81A
:10069000F08F40462146F9E7001B61EB0201001C88
:1006A00041F5801300185B412018A2F5001747EBB5
:1006B000030140EAD570B6196D4111E06D084FEAAB
:1006C000360645EAC0754FEA0752001B61EB02018E
:1006D000001C41F5801149084FEA300000195141D2
:1006E00032462B4603B0BDE8F04FFFF713BF00982A
:1006F000012240000023D0EB020263EBE07300987C
:1007000021464FEAE074B8EB000061EB0401E9E731
:1007100083F000435BE781F0004158E72DE9FE4F8D
:1007200081EA030404F0004421F0004100944FF0FA
:10073000000B23F0004350EA01045ED052EA0304A8
:100740005BD0C3F30A54C1F30A552C44A4F2F3342A
:100750000194A0FB0254C1F3130141F48011C3F3CF
:10076000130343F4801301FB024400FB034E840A8D
:10077000970A44EA815447EA8357A4FB0768029525
:100780008D0A05FB07854FEA932C04FB0C542705C3
:10079000029D4FEA065847EA1637B5EB08056EEB9F
:1007A000070C870E920E47EA811742EA8312A7FBD5
:1007B0000201B6EB0B0164EB00042B0D43EA0C3392
:1007C0005E1844EB1C50DA465146E7FB0201C5F3C4
:1007D00013044FEA0B3343EA14534FEA0432019CEB
:1007E00043EA0603A4F10C040294009CCDE900B492
:1007F000FFF79FFE03B0BDE8F08F00200146F9E748
:10080000C1F30A52C1F3130140F2FF3341F48011E6
:100810009A4202DA00200146704740F233439A427E
:10082000A2F2334202DC524200F03BB800F02AB898
:1008300030B5041E71F1000404DB4FF00044404267
:1008400064EB0101141E73F1000405DB1C464FF03C
:100850000043524263EB0403994208BF904230BD0B
:10086000064C074D06E0E06840F0010394E80700FD
:1008700098471034AC42F6D3FFF73CFCDC2F00085D
:10088000FC2F0008202A04DB203A00FA02F10020A5
:1008900070479140C2F1200320FA03F319439040BE
:1008A0007047202A04DB203A21FA02F00021704729
:1008B00021FA02F3D040C2F12002914008431946C8
:1008C0007047202A06DBCB17203A41FA02F043EAB0
:1008D000E07306E041FA02F3D040C2F120029140F9
:1008E0000843194670473A2800D2303820F02002D9
:1008F000412A01D3A2F13700884201D34FF0FF30E3
:100900007047000010B5024801F02CF810BD00003F
:100910000000002070B5054642F22830441B0D4807
:10092000007800EBC00101EB0010B4EB800F02DD9A
:10093000012000F087FD0748407800EBC00101EB83
:100940000010B4EB800F02DD012000F08BFB0248A9
:10095000046070BD000000200400002010B501F00C
:1009600011FFFFF7CFFF10BD10B500F06DFF10BDF8
:1009700010B500F071FB10BD10B5044601F0C0FFCA
:1009800002F032FA02F010FA0148046010BD0000D3
:100990002000002010B50848007858B107480068CA
:1009A00028B1074801780748044A12689047002098
:1009B0000149087010BD00001D000020200000202B
:1009C0001C000020D900002010B50021042000F0F8
:1009D000F2FA00BF062000F0DEFA0028FAD1F1207A
:1009E00000F0AAFBFF2000F0A7FB04460121042031
:1009F00000F0E1FA204610BD00F0805111B103492A
:100A0000086001E0024948607047000004040240A9
:100A1000000002400146486880B27047014600204D
:100A2000002201F0805313B1054B1A6801E0054B19
:100A30001A6802EA01030BB1012000E000207047B0
:100A4000000402400000024010B5012000F020F830
:100A500080B10949094802F041F840B1362002F05E
:100A6000B9F8342002F0B6F80120054908700120D9
:100A700000F008F810BD00001C000020D800002085
:100A80001D00002001490860704700001404014067
:100A9000014600200022074B1B6803EA0102054BB8
:100AA00014331B680B4013B10AB1012000E0002091
:100AB0007047000000040140002123498279002A88
:100AC0003AD00A46126803689A430B461A600A1D18
:100AD000126803689A430B1D1A60027911440A6870
:100AE00003681A430A60184A0832126803689A4376
:100AF000154B08331A601A1D126803689A43124B8B
:100B00000C331A604279102A0ED11A1F126803683A
:100B10001A430D4B08331A601A1D126803681A43F2
:100B2000094B0C331A600DE00749427911440A68F9
:100B300003681A430A6005E0027911440A680368F1
:100B40009A430A6070470000000401400149C860F0
:100B5000704700000020024030B5044604254FF4E1
:100B6000302000F095F80546042D17D10C48006997
:100B700040F002000A49086108464461006940F0FB
:100B8000400008614FF4302000F082F80546044828
:100B9000006941F6FD71084001490861284630BDF1
:100BA0000020024004200B49C96801F0010109B18D
:100BB00001200EE00749C96801F0040109B10220D3
:100BC00007E00449C96801F0100109B1032000E001
:100BD000042070470020024010B5024902A001F035
:100BE00049F910BD242F0008257320456E747279D1
:100BF0002121210A000000000348006940F0800024
:100C000001490861704700000020024078B506469F
:100C10000C46042500200090E80200F039F8054653
:100C2000042D24D11348006940F0010011490861E6
:100C30003480E80200F02CF80546042D10D1B01CD9
:100C40000090200C00990880E80200F021F8054689
:100C50000848006941F6FE7108400649086106E04F
:100C60000448006941F6FE710840024908612846BF
:100C700078BD000000200240024803494860034854
:100C8000486070472301674500200240AB89EFCDE3
:100C900000B502460423FFF785FF034603E0FFF794
:100CA00081FF0346521E012B01D1002AF7D102B960
:100CB0000523184600BD000030B500228B071C0F2D
:100CC0000F2303FA04F20B4B8C1053F82430934398
:100CD000084C8D1044F8253023468C1053F82430EE
:100CE0008C07240F00FA04F42343024C8D1044F8BF
:100CF000253030BD080001402DE9F04102460025B5
:100D00000026002000230024002791F803C00CF0E7
:100D10000F0591F803C00CF0100CBCF1000F03D0CC
:100D200091F802C04CEA050591F800C0BCF1000F33
:100D300031D0146800202BE04FF0010C0CFA00F3C6
:100D4000B1F800C00CEA03069E4220D183004FF0A8
:100D50000F0C0CFA03F7BC4305FA03FC4CEA04043D
:100D600091F803C0BCF1280F06D14FF0010C0CFA2A
:100D700000FCC2F814C00AE091F803C0BCF1480FAF
:100D800005D14FF0010C0CFA00FCC2F810C0401C59
:100D90000828D1D31460B1F800C0BCF1FF0F34DDD6
:100DA000546800202EE000F1080C4FF0010808FA0A
:100DB0000CF3B1F800C00CEA03069E4221D1830077
:100DC0004FF00F0C0CFA03F7BC4305FA03FC4CEA96
:100DD000040491F803C0BCF1280F05D100F1080C00
:100DE00008FA0CF8C2F8148091F803C0BCF1480F5F
:100DF00007D100F1080C4FF0010808FA0CF8C2F80E
:100E00001080401C0828CED35460BDE8F08100005B
:100E1000F0B50A46002300240021002500F000461A
:100E2000B6F1004F02D11D4EF16901E01B4E716811
:100E3000C0F3034583B200F44016B6F5401F08D155
:100E400021F07061154E766826F07066134F7E6053
:100E500012E000F48016B6F5801F06D1032606FACC
:100E600005F4A14341F0706106E0460D360103FA36
:100E700006F6B14341F0706122B1460D360103FA26
:100E800006F6314300F00046B6F1004F02D1034EA2
:100E9000F16101E0014E7160F0BD00000000014011
:100EA0000246002093680B400BB1012000E00020B7
:100EB00070470AB1016100E04161704710B5044616
:100EC000204601F06EFD10BD70B505460E46144675
:100ED000A2B23146284601F07BFD70BD2DE9F04FEE
:100EE000C1B006460F4615464FF0000B0024A04641
:100EF000B146BA46FF2D01D9C5F3072B05F0FF080F
:100F000000240FE00AEB04214FF4807201A8FFF7E0
:100F100009F909EB04204FF4807201A901F066FD84
:100F2000601CC4B25C45EDDBB8F1000F11D0FF22AC
:100F3000511C01A8FFF708F90AEB0421424601A859
:100F4000FFF7F0F809EB04204FF4807201A901F0DB
:100F50004DFD41B0BDE8F08FF8B504460D465F2C5D
:100F600000DDF8BD204601F083FEADF8000003204F
:100F70008DF802001DB910208DF8030002E0482012
:100F80008DF80300204601F07BFE06466946FFF718
:100F9000B3FE00BFE5E770B50446204601F068FEE9
:100FA0000546204601F06CFE06462946FFF778FF0D
:100FB00070BD704770472DE9F04105460C46284644
:100FC00001F056FE0646284601F05AFE0746224624
:100FD0003146FFF76EFFBDE8F081000010B501F06B
:100FE000BDFE00F0C5F8FFF7E4FF00F051F900F096
:100FF0005DF801F0B7FC01F05EFF08A000F03AFFD9
:101000000B48FFF7B9FC01F091FEFFF7DDFC044649
:10101000214608A000F02EFF10BD000043433131EF
:101020003031496E697469616C697A650A00000043
:10103000E9270008636331313031206964203D20A5
:1010400025640A0010B5FFF7B5FF00F073F800F053
:101050009FF9FFF79FFC10BD014800687047000032
:101060000800002010B5044609480078A0420ED0C0
:101070002246084908A000F0FDFE21461C20FFF78B
:101080009AFF21461D20FFF796FF0148047010BD0E
:101090000F000020122F000825732C20656E61625E
:1010A0006C65203D2025640A0000000000B587B073
:1010B000E020ADF8040018208DF8070003208DF81B
:1010C000060001A91948FFF717FE194800F0EEFACB
:1010D0000020ADF808004FF48270ADF80A0000203F
:1010E000ADF80C000220ADF80E000120ADF81000A4
:1010F0004002ADF812001020ADF814000020ADF849
:1011000016000720ADF8180002A9094800F008FBF6
:101110000221074800F0C6FA0121054800F0C2FA92
:101120000121034800F0B2FA07B000BD00080140F9
:10113000003001407047000010B5044600BF022196
:101140000A4800F0DFFA0028F9D02146074800F0ED
:10115000E5FA00BF0121054800F0D4FA0028F9D0D3
:10116000024800F0D8FAC0B210BD000000300140C3
:101170001FB540F2E330ADF804004720ADF8080099
:101180000020ADF80600ADF80A008DF80C0001A9AA
:10119000114800F0C9FC4FF4C06000F0B3F9192009
:1011A0008DF8000001208DF8030000208DF801006B
:1011B00002208DF80200684600F06CF90121064813
:1011C00000F090FC01221146034800F0A3FC01212D
:1011D000014800F08AFC1FBD002C01400248006855
:1011E000401C014908607047080000202DE9FF41BC
:1011F00005460C46684600F030FE0DB9204E09E069
:10120000012D01D11F4E05E0022D01D11E4E01E03E
:10121000BDE8FF811D4800EB051094E88E008EC0EC
:101220000021304600F03BFD002240F225513046BF
:1012300000F078FDA06800906088ADF80400208878
:10124000ADF808000020ADF806000C20ADF80A004B
:10125000A088ADF80C006946304600F089FD40F2E8
:101260002551304600F00CFD012240F22551304658
:1012700000F058FD0121304600F011FD00BFC7E726
:101280000038014000440040004800409800002021
:101290001CB54FF4C06000F035F925208DF804002E
:1012A00000208DF8050001208DF806008DF807005C
:1012B00001A800F0EFF826208DF8040000208DF83A
:1012C000050001208DF806008DF8070001A800F048
:1012D000E1F827208DF8040001208DF806008DF834
:1012E000070001A800F0D6F84FF40070ADF8000038
:1012F00018208DF8030003208DF80200694621486C
:10130000FFF7FAFC4FF48060ADF8000004208DF880
:10131000030069461B48FFF7EFFC0420ADF800000E
:1013200018208DF8030003208DF802006946154847
:10133000FFF7E2FC0820ADF8000004208DF8030060
:1013400069461048FFF7D8FC01210F48FFF760FD00
:101350004FF48060ADF8000018208DF803000320E2
:101360008DF8020069460948FFF7C6FC4FF400609B
:10137000ADF8000004208DF8030069460348FFF72C
:10138000BBFC1CBD0008014030001400000C0140F3
:1013900010B51648FFF73EFB1549098888420FD063
:1013A0001248FFF737FB04461248006830B1104975
:1013B0000988091B88B20F49096888470C480480CE
:1013C0004FF40030FFF72AFB01280ED14004FFF74D
:1013D00013FB0848006820B10548008805490968E2
:1013E00088474FF400700249088010BD5800024041
:1013F00018000020140000202DE9F04105460F469A
:1014000090460DB90D4E05E0012D01D10C4E01E0C5
:10141000BDE8F08100240CE0395D304600F019FD94
:1014200000BF4021304600F046FC0028F9D0601C87
:1014300084B24445F0DB00BFEAE700000038014019
:101440000044004010B504460B480078A04212D07A
:1014500022460A490AA000F00DFD21461E20FFF792
:10146000AAFD0CB9012000E0002001460020FFF792
:10147000A2FD0148047010BD0E000020012F0008DD
:1014800025732C20656E61626C65203D2025640A01
:101490000000000070B5002100230F22C47804B3BF
:1014A000154C246804F4E064C4F5E064210AC1F139
:1014B0000403CA40447804FA03F1847814402143B9
:1014C00009010E4C0678A155047804F01F0501248B
:1014D000AC4005786D11AD0005F1E025C5F800417F
:1014E00009E0047804F01F050124AC40044D06789F
:1014F000761145F8264070BD0CED00E000E400E0F8
:1015000080E100E002490143024A11607047000097
:101510000000FA050CED00E029B1064A52690243C9
:10152000044B5A6104E0034A52698243014B5A61F9
:10153000704700000010024029B1064AD2690243F8
:10154000044BDA6104E0034AD2698243014BDA6159
:10155000704700000010024029B1064A1269024398
:10156000044B1A6104E0034A12698243014B1A6179
:10157000704700000010024029B1064A92690243F8
:10158000044B9A6104E0034A92698243014B9A61D9
:10159000704700000010024029B1064AD268024399
:1015A000044BDA6004E0034AD2688243014BDA60FC
:1015B000704700000010024030B5002100220024D6
:1015C00000232D4D6D6805F00C0121B1042905D0D3
:1015D000082923D105E0294D056022E0274D05604B
:1015E0001FE0254D6D6805F47012234D6D6805F4FC
:1015F0008034022505EB92421CB9214D554305600C
:101600000BE01D4D6D6805F400351DB11C4D5543B3
:10161000056002E0194D5543056002E0174D056075
:1016200000BF00BF144D6D6805F0F0010909154DAC
:101630006B5C0568DD4045600F4D6D6805F4E06149
:10164000090A104D6B5C4568DD4085600A4D6D6888
:1016500005F46051C90A0B4D6B5C4568DD40C560FF
:10166000054D6D6805F44041890B074D6B5CC568FD
:10167000B5FBF3F5056130BD0010024000127A00A1
:1016800000093D00240000203400002021B1028820
:1016900042F04002028004E002884FF6BF731A4015
:1016A00002807047CA4302817047000010B50446AB
:1016B0001148844208D101218014FFF76DFF0021F9
:1016C000A014FFF769FF16E00C48844208D10121FD
:1016D0000014FFF741FF00212014FFF73DFF0AE04F
:1016E0000748844207D10121C013FFF735FF0021CD
:1016F000E013FFF731FF10BD00300140003800401B
:10170000003C00400246002013890B400BB1012031
:1017100000E000207047014688897047818170474A
:1017200010B50022028802F441520B884C882343F2
:101730008C882343CC8823430C8923434C8923433F
:101740008C892343CC8923431A430280838B4FF235
:10175000FF74234083830B8A038210BD10B500F011
:1017600001F810BD0CB500200190009033480068CE
:1017700040F480303149086000BF3048006800F410
:10178000003000900198401C0190009818B9019811
:10179000B0F5A06FF1D12948006800F4003010B115
:1017A0000120009001E0002000900098012843D122
:1017B0002348006840F0100021490860084600688E
:1017C00020F0030008600846006840F0020008604E
:1017D0001A48406819494860084640684860084609
:1017E000406840F4806048600846406820F47C10FF
:1017F00048600846406840F4E810486008460068C1
:1018000040F08070086000BF0C48006800F0007075
:101810000028F9D00948406820F0030007494860D3
:101820000846406840F00200486000BF0348406836
:1018300000F00C000828F9D10CBD00000010024097
:10184000002002407047000010B5002409E006485F
:1018500050F8240020B1044951F8240001F0E6F9C1
:10186000641C052CF3DB10BD8400002010B503467A
:101870000C4600210FE00A4850F8210050B90848F2
:1018800040F821300020587018705860DA609C6071
:10189000012010BD491C0529EDDB0020F9E70000FF
:1018A000840000202DE9F04706460F46002445E05D
:1018B000315D244802780078401C224B1870224881
:1018C000815418460078402802D300201946087039
:1018D000305D0A2830D100201B491A4A12788854FA
:1018E0001AA000F0C7FA1AA11748FEF73FFC00B390
:1018F0003D211548FEF74CFC054635B10A22002172
:10190000681CFEF74FFC00F0FF0813A10E48FEF71D
:101910002DFC05463DB10A22002105F10900FEF724
:1019200041FC00F0FF094946404600F05BF8FEF735
:10193000E9FF002003490870601C84B2BC42B7DB99
:10194000BDE8F08738000020580100202573000012
:101950007761726E696E670073687574646F776E15
:101960000000000038B50446022269461148FFF71E
:10197000ABFA9DF80000FF2803D09DF80100FF2876
:1019800005D105208DF800000A208DF80100BDF872
:1019900000002080084909A000F06CFA9DF80120A1
:1019A0009DF8001007A000F065FA0DA000F062FAA3
:1019B00038BD000000FC0008462F000825733A20BF
:1019C000000000007761726E696E67203D2025641B
:1019D0002C2073687574646F776E203D2025640039
:1019E0000A00000038B505460C460C490CA000F072
:1019F00041FA224629460CA000F03CFA11A000F062
:101A000039FA8DF800508DF801400F48FFF756FA6B
:101A1000022269460C48FFF761FA38BD352F0008ED
:101A200025733A20000000007761726E696E6720AE
:101A30003D2025642C2073687574646F776E203D9B
:101A4000202564000A00000000FC000810B5FFF724
:101A5000C5FAFEF783FF10BD10B5FEF785FFFFF74F
:101A6000F1FA10BD10B51348006840F001001149AB
:101A7000086008464068104908400E49486008461A
:101A800000680E4908400B4908600846006820F4C9
:101A9000802008600846406820F4FE0048604FF44B
:101AA0001F008860FFF75AFE4FF00060044908608D
:101AB00010BD0000001002400000FFF8FFFFF6FE1E
:101AC00008ED00E010B50121054800F01AF828B132
:101AD0000121034800F006F8FFF780FB10BD00006D
:101AE000002C0140CA430282704721B1028842F0B3
:101AF0000102028004E002884FF6FE731A40028061
:101B0000704702460020138A0B400BB1012000E011
:101B1000002070471AB183890B43838102E08389D7
:101B20008B43838170470000002202881D4B98423E
:101B30000ED01D4B98420BD0B0F1804F08D01B4BFC
:101B4000984205D01A4B984202D01A4B984204D1C1
:101B50004FF68F731A404B881A43174B984207D0A1
:101B6000164B984204D04FF6FF431A40CB881A43D5
:101B700002808B8883850B8803850A4B98420BD0A3
:101B8000094B984208D00E4B984205D00D4B984215
:101B900002D00D4B984201D10B7A03860123838238
:101BA00070470000002C0140003401400004004058
:101BB00000080040000C00400010004000140040ED
:101BC00000400140004401400048014008B540F297
:101BD00025510B4800F07CF888B140F225510848A7
:101BE00000F04EF8064800F02FF9C0B2009005480A
:101BF000C06820B103480121C2686846904708BD0B
:101C0000003801409800002008B540F225510B48EB
:101C100000F05EF888B140F22551084800F030F835
:101C2000064800F011F9C0B200900548C06920B123
:101C300003480121C2696846904708BD004400403E
:101C40009800002008B540F225510B4800F040F8FC
:101C500088B140F22551084800F012F8064800F01B
:101C6000F3F8C0B200900548C06A20B103480121D2
:101C7000C26A6846904708BD0048004098000020AE
:101C800010B50022002340F66A14A14200D100BF23
:101C90000A1201249440A3B2DC43048010BD21B198
:101CA000828942F40052828104E082894DF6FF73FA
:101CB0001A408281704702460020B1F5007F00D1B2
:101CC00000BF13880B400BB1012000E000207047DB
:101CD00070B50246002400230025002040F66A1655
:101CE000B14200D100BFC1F3421501F01F0301262C
:101CF00006FA03F3012D02D19689334006E0022D46
:101D000002D1168A334001E0968A33400C12012634
:101D100006FA04F41688344013B10CB1012000E037
:101D2000002070BDF0B503460024002600250020E9
:101D300040F66A17B94200D100BF1846C1F34214F9
:101D400001F01F06012707FA06F5012C01D10C301E
:101D500004E0022C01D1103000E014301AB1076801
:101D60002F43076002E00768AF430760F0BD000043
:101D70002DE9F04786B005460E460024A24600BF76
:101D8000A1460027B08900B100BF2F462C8A4CF62F
:101D9000FF700440F08804432C82AC894EF6F310A7
:101DA0000440B08831890843718908430443AC81F9
:101DB000AC8A4FF6FF400440B0890443AC8201A8CE
:101DC000FFF7FAFB1F48874202D1DDF810A001E0BF
:101DD000DDF80CA0A88900F4004040B10AEBCA006D
:101DE00000EB0A1031684900B0FBF1F807E00AEB9C
:101DF000CA0000EB0A1031688900B0FBF1F86420DA
:101E0000B8FBF0F004012009642101FB1089A889C6
:101E100000F4004040B1322000EBC900B0FBF1F00B
:101E200000F00700044308E0322000EB09106421B1
:101E3000B0FBF1F000F00F0004432C8106B0BDE8C8
:101E4000F08700000038014001468888C0F3080090
:101E50007047C1F30802828070474FF41651016049
:101E600000218180C18001810C214181002181817B
:101E7000704700000FB4054B10B503A9044A02983F
:101E800000F0CEF810BC5DF814FB0000AB2A00088F
:101E90003C000020004870474000002002E008C8D5
:101EA000121F08C1002AFAD170477047002001E0D4
:101EB00001C1121F002AFBD1704700002DE9FF5F0E
:101EC000DDE90220010DDDF838B0024318D044F6F8
:101ED0001050A1F2FF3141430D140F98012820D07A
:101EE000A5EB0B00401C5FEA000A4FF00004474ED0
:101EF000DFF81C91A046504616D5CAF1000728E02D
:101F00000F98012443A2012808D0002100980F9BBC
:101F1000C0E90021C0E90243BDE8FF9F6FEA0B0161
:101F2000F4E7CBF10000DEE7074612E0F80707D040
:101F30002246334640464946FEF7F0FB8046894636
:101F40002246334610461946FEF7E8FB04460E4685
:101F50007F10002FEAD1DDE90201BAF1000F4246FD
:101F60004B4602DAFEF7DAFB01E0FEF753F90446CE
:101F70000E460022284BFEF75BFC03D84FF0FF30E3
:101F8000014607E00022254B20463146FEF71FFBA5
:101F9000FEF736FC102409E0002C0ADB0A2200239D
:101FA000FEF7FDF9019B30321A55641E50EA01021A
:101FB000F2D1641C019AC4F1110314440F9A012A4E
:101FC00003D0012208430DD10AE0084304D00020C9
:101FD0004FF0110B0F9080E7A3EB0B056D1E0DE08A
:101FE0005B4504DD4FF0000205F1010504E003DA72
:101FF0004FF00002A5F10105002AECD000980F99DE
:10200000C0E90231C0E9004586E700000000244035
:102010000000F03F300000000000F0430000E03F0F
:102020002DE9FF4F95B09B468946064600250FE2F5
:10203000252877D100242746F84A0121059400E09D
:10204000044316F8013F203B01FA03F01042F7D198
:1020500030782A2811D06FF02F033078A0F13002A9
:10206000092A16D8059A44F0020402EB820203EB17
:1020700042021044761C0590EFE759F8042B0592B4
:10208000002A03DA504244F40054059044F002045C
:10209000761C30782E2816D116F8010F44F004046F
:1020A0002A280DD06FF02F023078A0F13003092BD1
:1020B00009D807EB870302EB4303C718761CF3E745
:1020C00059F8047B761C30786C280FD006DC4C283D
:1020D00017D068280DD06A2814D104E0742810D0D5
:1020E0007A280FD10DE044F400140AE044F480147F
:1020F00001E044F440147278824202D104F5801465
:10210000761C761C307866280BD013DC582877D0E4
:1021100009DC002875D04528F6D04628F4D0472899
:102120001AD19DE118E0632835D0642879D065285C
:1021300012D195E1702873D008DC6728F1D06928A6
:102140006FD06E280DD06F2806D1B5E073282CD043
:10215000752875D0782874D05A46179990476D1C09
:1021600075E1C4F30250022809D003280DD0D9F834
:10217000001004280DD00D6009F1040967E1D9F8B9
:102180000010EA17C1E90052F6E7D9F800100D80F7
:10219000F2E70D70F0E719F8041B8DF8001000202D
:1021A0008DF80100EA46012003E059F804AB4FF036
:1021B000FF3061074FF0000102D40DE008F101018A
:1021C0008846B9420FDA8045F8DB1AF80810002972
:1021D000F4D108E008F1010188468142FADB1AF8DF
:1021E00008100029F6D105985B46A0EB08072146A8
:1021F0003846179A00F094FA284400EB080507E0E7
:102200004DE029E10DE01AF8010B5A461799904765
:10221000B8F10108F7D25B4621463846179A13E118
:1022200042E00A220092C4F302524FF0000A022A4E
:1022300008D059F804CB032A4FEAEC710AD00DE01C
:1022400029E02AE009F1070121F00702F2E802C1C2
:10225000914609E00FFA8CFC4FEAEC71042A03D195
:102260004FFA8CFC4FEAEC71002907DA0A4600218C
:10227000DCF1000C61EB02012D2202E0220504D505
:102280002B228DF80420012203E0E20701D0202256
:10229000F7E7904659E00A2102E010220DE01021F4
:1022A0004FF0000A00910BE010224FF0000A44F0BA
:1022B00004040827009203E008224FF0000A00926D
:1022C000C4F30252022A05D059F804CB0021032A94
:1022D00008D009E009F1070121F00702F2E802C184
:1022E000914605E01FFA8CFC042A01D10CF0FF0C8A
:1022F0004FF00008220728D5702806D0009B83F0F5
:10230000100353EA0A0305D00EE040228DF80420A2
:10231000012208E05CEA010206D030228DF8042098
:102320008DF8050002229046009B83F0080353EAD3
:102330000A030AD15CEA010201D1620705D5302205
:102340008DF804204FF001087F1E582804D034A0D7
:1023500003900EA802900DE036A0F9E753466046C0
:10236000009AFEF71CF884460398825C0298401E8F
:10237000029002705CEA0100F0D1029806A9081AE6
:1023800000F1200A600702D524F4803400E0012720
:10239000574502DDA7EB0A0000E0002000EB0A0130
:1023A000009005984144401A0590E00306D45B462E
:1023B0002146179A059800F0B3F90544002706E076
:1023C00001A85A46C05D179990476D1C7F1C474570
:1023D000F6DBE0030CD55B462146179A059800F022
:1023E0009FF9054404E030205A46179990476D1C28
:1023F0000099481E00900029F5DC08E00298029937
:102400005A460078491C0291179990476D1CBAF101
:102410000001AAF1010AF1DC65E1000009280100D0
:10242000303132333435363738396162636465664A
:10243000000000003031323334353637383941420C
:10244000434445460000000000F058F90544761C5E
:10245000307800287FF4ECAD19B02846BDE8F08F45
:10246000620700D4062709F1070222F0070CFCE8F6
:102470000223E14603F000485FEA080C02D00FF2A5
:10248000702C0DE05FEA045C02D50FF2682C07E0C7
:102490005FEAC47C02D00FF2602C01E0AFF2700C56
:1024A0004FF0FF3823F00043CDF850C065280CD022
:1024B00006DC452809D046281DD047283DD13DE0FF
:1024C000662818D067287ED138E00021112F01DB63
:1024D000112000E0781CCDE9000106A90EA8FFF745
:1024E000EDFCDDE90F010E9A03910021009207F146
:1024F000010A04914DE04FF000400097CDE9011032
:1025000006A90EA8FFF7DAFCDDE90F0203920E9B85
:1025100011990022DDF80CA00093049211B9791CE6
:1025200000EB010AB7EB0A0004D4C0F1FF3007F159
:10253000010A0490AAEB0700019044E0012F00DAA1
:1025400001270021112F01DD112000E03846CDE9DF
:10255000000106A90EA8FFF7B1FCDDE90F010E9AF4
:102560000391002104910092BA4621070CD40399EB
:10257000514500DA8A46BAF1010F05DD009AAAF149
:102580000101515C302908D0B84202DA10F1040F81
:1025900006DA0121CDE9011015E0AAF10101E9E710
:1025A000002805DC049901440491AAEB000102E033
:1025B000411C514500DD8A460499401A401C019097
:1025C0004FF000400290200704D40198504501DBF1
:1025D000CDF8048000208DF84F0002980DF14F07D0
:1025E000B0F1004F25D02B200E9002984FF002083A
:1025F00000280CDA404202902D200E9007E00A21BC
:102600000298FDF7B6FE3031029007F8011DB8F1CF
:102610000001A8F10108F2DC02980028EFD1791E30
:102620000E980870307800F0200040F0450007F860
:10263000020D12A8C01B00F107081498007800B121
:10264000012000EB0A01019801EBE071059841447B
:10265000401A401E0590E00306D45B462146179AB7
:10266000059800F05DF805441498007818B15A46B2
:10267000179990476D1CE00324D55B462146179AB5
:10268000059800F04DF805441CE00498002807DB8D
:10269000DDE90301884203DD0098405C179901E001
:1026A000179930205A469047049805F10105401CBF
:1026B00004900198401E019004D12E205A4617998B
:1026C00090476D1CBAF10001AAF1010ADDDC05E0BA
:1026D00017F8010B5A46179990476D1CB8F1000185
:1026E000A8F10108F4DC5B462146179A0598ABE691
:1026F0002D0000002B000000200000002DE9F0411B
:10270000044600251E461746880404D405E03946D1
:102710002020B0476D1C641EF9D52846BDE8F08125
:102720002DE9F041044600251E469046C80301D518
:10273000302700E02027880404D505E041463846CC
:10274000B0476D1C641EF9D52846BDE8F081000035
:1027500070B506460C4615460948B0420DD165B91C
:10276000142C0AD900F0B2FA28B10020FEF77AFC46
:102770000020FEF767FE012070BD0020FCE700008E
:102780004400002010B501210F20FEF7E5FB0121D8
:102790001320FEF7E1FB01211420FEF7DDFB0121F0
:1027A0001520FEF7D9FBFFF74DF80C4A0C490D48F0
:1027B000FFF75CF8094A0A490A481030FFF756F853
:1027C000064A074907482030FFF750F8034A0449F2
:1027D00004483030FFF74AF810BD0000BD2A000859
:1027E00051270008440000202DE9F04F8DB0044629
:1027F0000120FEF7D0FB08B9012000E0002083464D
:1028000059460120FEF7D7FB20680A90A088ADF852
:102810002C006078217800EB012006B2E078A178E6
:1028200000EB012005B26079217900EB012007B2AD
:10283000B5F1000B01DB594601E0CBF10001084680
:10284000FEF768F83046FDF754FD0022224BCDE933
:102850000601FDF7DFFCCDE90801FDF76EFD8046BE
:102860002846FDF746FD00221B4BCDE90601FDF78A
:10287000D1FCCDE90801FDF760FD81463846FDF742
:1028800038FD0022144BCDE90601FDF7C3FCCDE96C
:102890000801FDF752FD82465046FDF73BFDCDE9AC
:1028A00008014846FDF736FDCDE906014046FDF733
:1028B00031FDCDE90401DDE90801CDE90201DDE9E1
:1028C0000601CDE9000105A0DDE90423FFF7D2FAF6
:1028D0000DB0BDE8F08F0000000059407961773DF0
:1028E00025302E31662C2070697463683D25302EAA
:1028F00031662C20726F6C6C3D25302E31660A00DB
:1029000010B500210420FEF727FB01210420FEF76B
:1029100052FB1E2000F03AF800210420FEF74BFB8A
:102920001E2000F033F801210420FEF744FB2D2087
:1029300000F02CF800210420FEF73DFB00BF06202C
:10294000FEF729FB0028FAD13020FEF7F5FB00BF87
:102950000620FEF720FB0028FAD101210420FEF713
:102960002AFB10BD1FB54FF4E13002900020ADF8F6
:102970000000ADF80400ADF802000348039069467A
:102980000120FEF733FC1FBDA5180008002105E05B
:10299000002200E0521C0A2AFCDB491C8142F7DBC2
:1029A000704770B50546FEF767F900240AE0342049
:1029B000FEF7CCF82846FEF7CFF8042800D103E054
:1029C000601CC4B20A2CF2DB00BFFEF715F970BD23
:1029D0002DE9F04104460D461646002732462146B1
:1029E0002846FDF79FFB3846BDE8F0812DE9F84FFA
:1029F0008246894614460026CDF800A0B3464F46CD
:102A0000FEF73AF93420FEF7A1F8B9F1000F48D0EB
:102A10002046E11704EB91714FEAA1083EE0002641
:102A2000B8F1000F24D12046E11704EB9171891011
:102A3000A4EB810101F0FF0BBBF1010F06D0BBF14C
:102A4000020F04D0BBF1030F11D101E000BF00BFA2
:102A5000ABF1010508E0785D0643012D01DD36028A
:102A600001E0E80086406D1E002DF4DA00BF09E0A9
:102A7000032503E0785D064336026D1E012DF9DA69
:102A8000387806433F1D31460098FEF7BFF804280A
:102A900002D10098001D0090A8F10108B8F1000FC4
:102AA000BDDCFEF7A9F8BDE8F88F13B50C4601228E
:102AB00069461046FEF7A0FC00981CBD10B5044600
:102AC0000548A04205D10F20FEF765FA08B901209C
:102AD00010BD0020FCE700004400002070B5054652
:102AE0000E463B2000F05BF800F07F00C0B13F20B5
:102AF00000F03BF804462C70802C0BD8A01CC2B20E
:102B0000691C3F2000F00EF834703A2000F062F8A3
:102B1000012070BD34703A2000F05CF80020F8E726
:102B20000020F6E72DE9F04105460E461746002144
:102B30000420FEF740FA00BF0620FEF72CFA00281A
:102B4000FAD145F0C000FEF7F7FA002405E0FF20B7
:102B5000FEF7F2FA3055601CC4B2BC42F7DB01212B
:102B60000420FEF728FABDE8F08170B50446002184
:102B70000420FEF720FA00BF0620FEF70CFA00281A
:102B8000FAD144F08000FEF7D7FAFF20FEF7D4FA1E
:102B9000054601210420FEF70EFA284670BD70B5E7
:102BA000044644F0C00500210420FEF704FA00BFEB
:102BB0000620FEF7F0F90028FAD12846FEF7BCFA05
:102BC000FF20FEF7B9FA064601210420FEF7F3F9CB
:102BD000304670BD10B5044600210420FEF7EBF925
:102BE00000BF0620FEF7D7F90028FAD12046FEF7ED
:102BF000A3FA01210420FEF7DEF910BD70B50546E9
:102C00000C4600210420FEF7D6F900BF0620FEF78F
:102C1000C2F90028FAD12846FEF78EFA2046FEF7C0
:102C20008BFA01210420FEF7C6F970BD70B5044689
:102C3000FDF79EFE0546207801280ED12046E1686A
:102C40008847207022786068291A2046A368984730
:102C500068B100206070656009E02046E16888473F
:102C600020702078012802D100206070656070BD5E
:102C7000014601F00F020120904080B27047000031
:102C800001460A11062A10D2DFE802F003050709FF
:102C90000B0D074870470748FCE70748FAE7074865
:102CA000F8E70748F6E70748F4E70748F2E70000C7
:102CB00000080140000C01400010014000140140D8
:102CC00000180140001C01400020014010B50D49D2
:102CD0000DA0FFF7CFF80E4801680EA0FFF7CAF865
:102CE00010A0FFF7C7F81048007800EBC00101EB17
:102CF000001007490968B1EB800F01DA012010BD0F
:102D00000020FCE7F22E000825733A2000000000A6
:102D1000040000206C6173745069746368203D2066
:102D2000256400000A0000000000002010B500210A
:102D30000846FEF711F900210120FEF70DF90121E7
:102D40000020FEF738F901210846FEF734F910BDDE
:102D5000FEF77CFE01E0FEF77FFEFCE710B50121E7
:102D60000846FEF7D9FB01210420FEF705FC0121EE
:102D70000820FEF701FC01211020FEF7FDFB0121D8
:102D80008803FEF7F9FB01214804FEF7D5FB01217A
:102D90000846FEF7F1FB0121C802FEF7EDFB012119
:102DA0000803FEF7E9FB10BD0EB506208DF80800FC
:102DB00000208DF8090001208DF80B0002A8FEF715
:102DC00069FB00210120FDF777FF01200090002022
:102DD0008DF804000C208DF8050001208DF8060008
:102DE0006846FDF769FE0EBD10B506210220FFF70B
:102DF00005FFFF210620FFF701FF05210820FFF74F
:102E0000FDFE00210920FFF7F9FE0A210846FFF721
:102E1000F5FE06210B20FFF7F1FE10210D20FFF734
:102E2000EDFEB1210E20FFF7E9FE3B210F20FFF759
:102E3000E5FE25211020FFF7E1FE83211120FFF799
:102E4000DDFE13211220FFF7D9FE60211520FFF7C8
:102E5000D5FE18210846FFF7D1FE3F211720FFF7C6
:102E6000CDFE16211920FFF7C9FEFB212020FFF718
:102E7000C5FEE9212320FFF7C1FE2A212420FFF708
:102E8000BDFE00212520FFF7B9FE1F212620FFF7F8
:102E9000B5FE09212E20FFF7B1FEC0213E20FFF72D
:102EA000ADFE3620FFF796FE3320FFF793FE342069
:102EB000FFF790FE10BD10B500211C20FEF74CF866
:102EC00000211D20FEF748F800211E20FEF744F8DF
:102ED00000211C20FEF76FF800211D20FEF76BF883
:102EE00000211E20FEF767F801210020FEF763F89D
:102EF00010BD69735761726E696E67436C6561726C
:102F00000048616C5761726E696E67456E61626CF4
:102F1000650048616C53687574446F776E456E61E7
:102F2000626C6500464C4153485F49525148616E9E
:102F3000646C6572005379734465677265654172AC
:102F400067536176650053797344656772656541BF
:102F500072674C6F61640000404040404040404018
:102F6000404141414141404040404040404040405C
:102F7000404040404040404005020202020202023E
:102F80000202020202020202202020202020202031
:102F90002020020202020202029090909090901073
:102FA0001010101010101010101010101010101021
:102FB000101010020202020202888888888888089D
:102FC0000808080808080808080808080808080881
:102FD0000808080202020240582F0008FC2F0008CF
:102FE00000000020440000009C1E00084030000843
:102FF0004400002054050000AC1E00080000000042
:1030000000000000000000000100000000000000BF
:1030100000000000000200000000000000000000AE
:10302000000000000102030401020304060708096E
:10303000020406080000000000000000000000007C
:04000005080000ED02
:00000001FF
