:020000040800F2
:10000000F804002001010008090100080B010008A4
:100010000D0100080F010008110100080000000098
:1000200000000000000000000000000013010008B4
:100030001501000800000000170100081901000860
:100040001B0100081B0100081B0100081B01000820
:100050001B0100081B010008690200081B010008C1
:100060001B0100081B0100081B0100081B01000800
:100070001B0100081B0100081B0100081B010008F0
:100080001B0100081B0100081B0100081B010008E0
:100090001B0100081B0100081B0100081B010008D0
:1000A0001B010008150E00081B0100081B010008B9
:1000B0001B0100081B0100081B0100081B010008B0
:1000C0001B0100081B0100081B0100081B010008A0
:1000D0001B0100081D0F0008590F0008950F0008AC
:1000E0001B0100081B0100081B010008DFF80CD0F1
:1000F00000F02EF80048004725160008F8040020FC
:100100000648804706480047FEE7FEE7FEE7FEE7B1
:10011000FEE7FEE7FEE7FEE7FEE7FEE7B50D0008B7
:10012000ED00000830B50B460146002020220124D6
:1001300009E021FA02F59D4205D303FA02F5491BB5
:1001400004FA02F52844151EA2F10102F1DC30BDCB
:10015000064C074D06E0E06840F0010394E8070014
:1001600098471034AC42F6D3FFF7C4FF8C17000851
:10017000AC17000810B500F03DFA02A001F022F81B
:1001800010BD000068616C20696E69740A0000008F
:1001900010B500F061FA10BD10B5044601F004F985
:1001A00001F08CFA01F06AFA0148046010BD000009
:1001B0001800002010B50848007858B107480068BA
:1001C00028B1074801780748044A12689047002080
:1001D0000149087010BD0000150000201800002023
:1001E000140000207500002010B50021042000F04C
:1001F000EEF900BF062000F0DAF90028FAD1F1206C
:1002000000F07AFAFF2000F077FA0446012104207A
:1002100000F0DDF9204610BD00F0805111B1034916
:10022000086001E002494860704700000404024091
:10023000000002400146486880B270470146002035
:10024000002201F0805313B1054B1A6801E0054B01
:100250001A6802EA01030BB1012000E00020704798
:10026000000402400000024010B5012000F020F818
:1002700080B10949094801F0EEF840B1362001F09B
:1002800066F9342001F063F9012005490870012066
:1002900000F008F810BD00001400002074000020D9
:1002A0001500002001490860704700001404014057
:1002B000014600200022074B1B6803EA0102054BA0
:1002C00014331B680B4013B10AB1012000E0002079
:1002D0007047000000040140002123498279002A70
:1002E0003AD00A46126803689A430B461A600A1D00
:1002F000126803689A430B1D1A60027911440A6858
:1003000003681A430A60184A0832126803689A435D
:10031000154B08331A601A1D126803689A43124B72
:100320000C331A604279102A0ED11A1F1268036822
:100330001A430D4B08331A601A1D126803681A43DA
:10034000094B0C331A600DE00749427911440A68E1
:1003500003681A430A6005E0027911440A680368D9
:100360009A430A60704700000004014030B5002243
:100370008B071C0F0F2303FA04F20B4B8C1053F85E
:1003800024309343084C8D1044F8253023468C10BC
:1003900053F824308C07240F00FA04F42343024C52
:1003A0008D1044F8253030BD080001402DE9F041A2
:1003B000024600250026002000230024002791F893
:1003C00003C00CF00F0591F803C00CF0100CBCF149
:1003D000000F03D091F802C04CEA050591F800C067
:1003E000BCF1000F31D0146800202BE04FF0010C5D
:1003F0000CFA00F3B1F800C00CEA03069E4220D1CB
:1004000083004FF00F0C0CFA03F7BC4305FA03FC12
:100410004CEA040491F803C0BCF1280F06D14FF058
:10042000010C0CFA00FCC2F814C00AE091F803C0F9
:10043000BCF1480F05D14FF0010C0CFA00FCC2F8DA
:1004400010C0401C0828D1D31460B1F800C0BCF122
:10045000FF0F34DD546800202EE000F1080C4FF04F
:10046000010808FA0CF3B1F800C00CEA03069E423A
:1004700021D183004FF00F0C0CFA03F7BC4305FAAF
:1004800003FC4CEA040491F803C0BCF1280F05D129
:1004900000F1080C08FA0CF8C2F8148091F803C0B7
:1004A000BCF1480F07D100F1080C4FF0010808FA21
:1004B0000CF8C2F81080401C0828CED35460BDE868
:1004C000F0810000F0B50A46002300240021002539
:1004D00000F00046B6F1004F02D11D4EF16901E077
:1004E0001B4E7168C0F3034583B200F44016B6F5A5
:1004F000401F08D121F07061154E766826F07066B5
:10050000134F7E6012E000F48016B6F5801F06D10E
:10051000032606FA05F4A14341F0706106E0460D9A
:10052000360103FA06F6B14341F0706122B1460D7F
:10053000360103FA06F6314300F00046B6F1004FEB
:1005400002D1034EF16101E0014E7160F0BD000087
:10055000000001400246002093680B400BB10120CF
:1005600000E0002070470AB1016100E0416170477E
:10057000F8B504460D465F2C00DDF8BD204601F0BD
:1005800012F8ADF8000003208DF802001DB910200C
:100590008DF8030002E048208DF80300204601F0AA
:1005A00009F806466946FFF701FF00BFE5E770B5A9
:1005B0000446204600F0F7FF0546204600F0FAFF0B
:1005C00006462946FFF7C6FF70BD704770472DE904
:1005D000F04105460C46284600F0E5FF0646284651
:1005E00000F0E8FF074622463146FFF7BCFFBDE8B2
:1005F000F081000010B501F01BF800F099F8FFF74A
:10060000E4FF00F025F900F031F800F0FFFE08A04B
:1006100000F0D8FD0B48FFF7BFFD00F0F1FFFFF73A
:10062000E3FD0446214608A000F0CCFD10BD00000B
:10063000434331313031496E697469616C697A655F
:100640000A0000005913000863633131303120691A
:1006500064203D2025640A0010B5FFF7B7FF00F0C5
:1006600049F800F075F9FFF7A5FD10BD00B587B09A
:10067000E020ADF8040018208DF8070003208DF865
:10068000060001A91948FFF791FE194800F0C6FAC3
:100690000020ADF808004FF48270ADF80A00002089
:1006A000ADF80C000220ADF80E000120ADF81000EE
:1006B0004002ADF812001020ADF814000020ADF893
:1006C00016000720ADF8180002A9094800F0E0FA6A
:1006D0000221074800F09EFA0121054800F09AFA2D
:1006E0000121034800F08AFA07B000BD000801406C
:1006F000003001407047000010B5044600BF0221E1
:100700000A4800F0B7FA0028F9D02146074800F05F
:10071000BDFA00BF0121054800F0ACFA0028F9D06D
:10072000024800F0B0FAC0B210BD00000030014035
:100730001FB540F2E330ADF804004720ADF80800E3
:100740000020ADF80600ADF80A008DF80C0001A9F4
:10075000114800F091FB4FF4C06000F08BF91920B4
:100760008DF8000001208DF8030000208DF80100B5
:1007700002208DF80200684600F044F90121064885
:1007800000F058FB01221146034800F06BFB0121E9
:10079000014800F052FB1FBD002C014002480068D8
:1007A000401C014908607047000000202DE9FF410E
:1007B00005460C46684600F0F8FC0DB9204E09E0ED
:1007C000012D01D11F4E05E0022D01D11E4E01E089
:1007D000BDE8FF811D4800EB051094E88E008EC037
:1007E0000021304600F003FC002240F22551304643
:1007F00000F040FCA06800906088ADF804002088FC
:10080000ADF808000020ADF806000C20ADF80A0095
:10081000A088ADF80C006946304600F051FC40F26B
:100820002551304600F0D4FB012240F225513046DC
:1008300000F020FC0121304600F0D9FB00BFC7E7E3
:1008400000380140004400400048004034000020CF
:100850001CB54FF4C06000F00DF925208DF80400A0
:1008600000208DF8050001208DF806008DF80700A6
:1008700001A800F0C7F826208DF8040000208DF8AC
:10088000050001208DF806008DF8070001A800F092
:10089000B9F827208DF8040001208DF806008DF8A6
:1008A000070001A800F0AEF84FF40070ADF80000AA
:1008B00018208DF8030003208DF8020069462148B6
:1008C000FFF774FD4FF48060ADF8000004208DF850
:1008D000030069461B48FFF769FD0420ADF80000DE
:1008E00018208DF8030003208DF802006946154892
:1008F000FFF75CFD0820ADF8000004208DF8030030
:1009000069461048FFF752FD01210F48FFF7DAFD55
:100910004FF48060ADF8000018208DF8030003202C
:100920008DF8020069460948FFF740FD4FF400606A
:10093000ADF8000004208DF8030069460348FFF776
:1009400035FD1CBD0008014030001400000C0140C2
:1009500010B51648FFF76EFC1549098888420FD07C
:100960001248FFF767FC04461248006830B110498E
:100970000988091B88B20F49096888470C48048018
:100980004FF40030FFF75AFC01280ED14004FFF766
:1009900043FC0848006820B10548008805490968FB
:1009A00088474FF400700249088010BD580002408B
:1009B000100000200C0000202DE9F04105460F46F4
:1009C00090460DB90D4E05E0012D01D10C4E01E010
:1009D000BDE8F08100240CE0395D304600F0E1FB19
:1009E00000BF4021304600F00EFB0028F9D0601C0B
:1009F00084B24445F0DB00BFEAE700000038014064
:100A00000044004070B5002100230F22C47804B3D5
:100A1000154C246804F4E064C4F5E064210AC1F1D3
:100A20000403CA40447804FA03F184781440214353
:100A300009010E4C0678A155047804F01F05012425
:100A4000AC4005786D11AD0005F1E025C5F8004119
:100A500009E0047804F01F050124AC40044D067839
:100A6000761145F8264070BD0CED00E000E400E092
:100A700080E100E002490143024A11607047000032
:100A80000000FA050CED00E029B1064A5269024364
:100A9000044B5A6104E0034A52698243014B5A6194
:100AA000704700000010024029B1064AD269024393
:100AB000044BDA6104E0034AD2698243014BDA61F4
:100AC000704700000010024029B1064A1269024333
:100AD000044B1A6104E0034A12698243014B1A6114
:100AE000704700000010024029B1064A9269024393
:100AF000044B9A6104E0034A92698243014B9A6174
:100B0000704700000010024029B1064AD268024333
:100B1000044BDA6004E0034AD2688243014BDA6096
:100B2000704700000010024030B500210022002470
:100B300000232D4D6D6805F00C0121B1042905D06D
:100B4000082923D105E0294D056022E0274D0560E5
:100B50001FE0254D6D6805F47012234D6D6805F496
:100B60008034022505EB92421CB9214D55430560A6
:100B70000BE01D4D6D6805F400351DB11C4D55434E
:100B8000056002E0194D5543056002E0174D056010
:100B900000BF00BF144D6D6805F0F0010909154D47
:100BA0006B5C0568DD4045600F4D6D6805F4E061E4
:100BB000090A104D6B5C4568DD4085600A4D6D6823
:100BC00005F46051C90A0B4D6B5C4568DD40C5609A
:100BD000054D6D6805F44041890B074D6B5CC56898
:100BE000B5FBF3F5056130BD0010024000127A003C
:100BF00000093D001C0000202C00002021B10288CB
:100C000042F04002028004E002884FF6BF731A40AF
:100C100002807047CA4302817047000010B5044645
:100C20001148844208D101218014FFF76DFF002193
:100C3000A014FFF769FF16E00C48844208D1012197
:100C40000014FFF741FF00212014FFF73DFF0AE0E9
:100C50000748844207D10121C013FFF735FF002167
:100C6000E013FFF731FF10BD0030014000380040B5
:100C7000003C00400246002013890B400BB10120CC
:100C800000E00020704701468889704781817047E5
:100C900010B50022028802F441520B884C8823438D
:100CA0008C882343CC8823430C8923434C892343DA
:100CB0008C892343CC8923431A430280838B4FF2D0
:100CC000FF74234083830B8A038210BD10B500F0AC
:100CD00001F810BD0CB50020019000903348006869
:100CE00040F480303149086000BF3048006800F4AB
:100CF000003000900198401C0190009818B90198AC
:100D0000B0F5A06FF1D12948006800F4003010B1AF
:100D10000120009001E0002000900098012843D1BC
:100D20002348006840F01000214908600846006828
:100D300020F0030008600846006840F002000860E8
:100D40001A484068194948600846406848600846A3
:100D5000406840F4806048600846406820F47C1099
:100D600048600846406840F4E8104860084600685B
:100D700040F08070086000BF0C48006800F0007010
:100D80000028F9D00948406820F00300074948606E
:100D90000846406840F00200486000BF03484068D1
:100DA00000F00C000828F9D10CBD00000010024032
:100DB0000020024010B51348006840F001001149BE
:100DC000086008464068104908400E4948600846D7
:100DD00000680E4908400B4908600846006820F486
:100DE000802008600846406820F4FE0048604FF408
:100DF0001F008860FFF76AFF4FF000600449086039
:100E000010BD0000001002400000FFF8FFFFF6FEDA
:100E100008ED00E010B50121054800F01AF828B1EE
:100E20000121034800F006F8FFF7B8FC10BD0000F0
:100E3000002C0140CA430282704721B1028842F06F
:100E40000102028004E002884FF6FE731A4002801D
:100E5000704702460020138A0B400BB1012000E0CE
:100E6000002070471AB183890B43838102E0838994
:100E70008B43838170470000002202881D4B9842FB
:100E80000ED01D4B98420BD0B0F1804F08D01B4BB9
:100E9000984205D01A4B984202D01A4B984204D17E
:100EA0004FF68F731A404B881A43174B984207D05E
:100EB000164B984204D04FF6FF431A40CB881A4392
:100EC00002808B8883850B8803850A4B98420BD060
:100ED000094B984208D00E4B984205D00D4B9842D2
:100EE00002D00D4B984201D10B7A038601238382F5
:100EF00070470000002C0140003401400004004015
:100F000000080040000C00400010004000140040A9
:100F100000400140004401400048014008B540F253
:100F200025510B4800F07CF888B140F22551084863
:100F300000F04EF8064800F02FF9C0B200900548C6
:100F4000C06820B103480121C2686846904708BDC7
:100F5000003801403400002008B540F225510B480C
:100F600000F05EF888B140F22551084800F030F8F2
:100F7000064800F011F9C0B200900548C06920B1E0
:100F800003480121C2696846904708BD00440040FB
:100F90003400002008B540F225510B4800F040F81D
:100FA00088B140F22551084800F012F8064800F0D8
:100FB000F3F8C0B200900548C06A20B1034801218F
:100FC000C26A6846904708BD0048004034000020CF
:100FD00010B50022002340F66A14A14200D100BFE0
:100FE0000A1201249440A3B2DC43048010BD21B155
:100FF000828942F40052828104E082894DF6FF73B7
:101000001A408281704702460020B1F5007F00D16E
:1010100000BF13880B400BB1012000E00020704797
:1010200070B50246002400230025002040F66A1611
:10103000B14200D100BFC1F3421501F01F030126E8
:1010400006FA03F3012D02D19689334006E0022D02
:1010500002D1168A334001E0968A33400C120126F1
:1010600006FA04F41688344013B10CB1012000E0F4
:10107000002070BDF0B503460024002600250020A6
:1010800040F66A17B94200D100BF1846C1F34214B6
:1010900001F01F06012707FA06F5012C01D10C30DB
:1010A00004E0022C01D1103000E014301AB10768BE
:1010B0002F43076002E00768AF430760F0BD000000
:1010C0002DE9F04786B005460E460024A24600BF33
:1010D000A1460027B08900B100BF2F462C8A4CF6EC
:1010E000FF700440F08804432C82AC894EF6F31064
:1010F0000440B08831890843718908430443AC81B6
:10110000AC8A4FF6FF400440B0890443AC8201A88A
:10111000FFF70AFD1F48874202D1DDF810A001E069
:10112000DDF80CA0A88900F4004040B10AEBCA0029
:1011300000EB0A1031684900B0FBF1F807E00AEB58
:10114000CA0000EB0A1031688900B0FBF1F8642096
:10115000B8FBF0F004012009642101FB1089A88983
:1011600000F4004040B1322000EBC900B0FBF1F0C8
:1011700000F00700044308E0322000EB091064216E
:10118000B0FBF1F000F00F0004432C8106B0BDE885
:10119000F08700000038014001468888C0F308004D
:1011A0007047C1F30802828070474FF41651016006
:1011B00000218180C18001810C2141810021818138
:1011C000704700000FB4054B10B503A9044A0298FC
:1011D00000F018F810BC5DF814FB0000451400087E
:1011E0003000002002E008C8121F08C1002AFAD10E
:1011F00070477047002001E001C1121F002AFBD197
:10120000704700002DE9FF4F89B09B46044600253A
:1012100006E025280BD05A460B999047641C6D1C9C
:1012200020780028F5D10DB02846BDE8F08F0027C2
:10123000B8460122474900E0074314F8013F203B2C
:1012400002FA03F00842F7D120782E2819D114F8B9
:10125000010F47F004072A280ED06FF02F022078E4
:10126000A0F1300109290CD808EB880102EB4101FB
:1012700000EB0108641CF2E70A98641C50F8048B28
:101280000A9020780028CED0642808D0692806D09B
:1012900075281ED05A460B9990476D1C58E00A9944
:1012A0004FF00A0901C90A91002802DA40422D21B3
:1012B00002E0390504D52B218DF82010012103E02F
:1012C000F90704D02021F7E78A4608AE0DE0002197
:1012D000FAE70A994FF00A0901C90A91F7E7494666
:1012E000FEF720FF303106F8011D0028F7D1ADEBE5
:1012F000060000F12009780701D44FF00108C84525
:1013000002DDA8EB090000E000208046002706E08F
:1013100008A85A46C05D0B9990476D1C7F1C574525
:10132000F6DB04E030205A460B9990476D1CB8F16B
:101330000001A8F10108F5DC05E016F8010B5A469A
:101340000B9990476D1CB9F10001A9F10109F4DC7A
:10135000641C65E7092801007CB504460E4601209F
:10136000FFF725F908B9012000E0002005462946CD
:101370000120FFF72CF920680090A088ADF8040048
:10138000BDF80430BDF80220BDF8001001A0FFF741
:1013900019FF7CBD783D25642C20793D25642C20E7
:1013A0007A3D25640A00000010B500210420FFF7F3
:1013B000DFF801210420FFF70AF91E2000F037F8BA
:1013C00000210420FFF703F91E2000F030F801216E
:1013D0000420FFF7FCF82D2000F029F8002104205C
:1013E000FFF7F5F800BF0620FFF7E1F80028FAD173
:1013F0003020FFF781F900BF0620FFF7D8F800285A
:10140000FAD101210420FFF7E2F810BD1FB54FF417
:10141000E13002900020ADF80000ADF80400ADF816
:101420000200039069460120FFF7C0F91FBD0021AB
:1014300005E0002200E0521C0A2AFCDB491C814224
:10144000F7DB704713B50C46012269461046FFF7DB
:10145000B3FA00981CBD70B505460E463B2000F05F
:101460005BF800F07F00C0B13F2000F03BF804467D
:101470002C70802C0BD8A01CC2B2691C3F2000F03D
:101480000EF834703A2000F062F8012070BD34701C
:101490003A2000F05CF80020F8E70020F6E72DE99C
:1014A000F04105460E46174600210420FFF78FF84D
:1014B00000BF0620FFF77BF80028FAD145F0C000F6
:1014C000FFF71AF9002405E0FF20FFF715F9305562
:1014D000601CC4B2BC42F7DB01210420FFF777F89F
:1014E000BDE8F08170B5044600210420FFF76FF8D5
:1014F00000BF0620FFF75BF80028FAD144F0800017
:10150000FFF7FAF8FF20FFF7F7F80546012104205E
:10151000FFF75DF8284670BD70B5044644F0C0057D
:1015200000210420FFF753F800BF0620FFF73FF823
:101530000028FAD12846FFF7DFF8FF20FFF7DCF894
:10154000064601210420FFF742F8304670BD10B571
:10155000044600210420FFF73AF800BF0620FFF7F9
:1015600026F80028FAD12046FFF7C6F8012104200A
:10157000FFF72DF810BD70B505460C46002104207C
:10158000FFF725F800BF0620FFF711F80028FAD171
:101590002846FFF7B1F82046FFF7AEF801210420F6
:1015A000FFF715F870BD014601F00F0201209040D1
:1015B00080B2704701460A11062A10D2DFE802F015
:1015C000030507090B0D074870470748FCE7074864
:1015D000FAE70748F8E70748F6E70748F4E7074857
:1015E000F2E7000000080140000C0140001001403B
:1015F0000014014000180140001C0140002001407F
:1016000010B500210846FEF7B3FF00210120FEF7C8
:10161000AFFF00210846FEF7DAFF01210846FEF77A
:10162000D6FF10BDFEF7A6FD01E0FEF7B1FDFCE719
:1016300010B501210846FFF727FA01210420FFF722
:1016400053FA01210820FFF74FFA01211020FFF77C
:101650004BFA01218803FFF747FA01214804FFF7FD
:1016600023FA01210846FFF73FFA0121C802FFF7DC
:101670003BFA01210803FFF737FA10BD0EB506202B
:101680008DF8080000208DF8090001208DF80B006E
:1016900002A8FFF7B7F900210120FEF767FE01203D
:1016A000009000208DF804000C208DF8050001202A
:1016B0008DF806006846FEF70FFE0EBD10B5062138
:1016C0000220FFF758FFFF210620FFF754FF0521F6
:1016D0000820FFF750FF00210920FFF74CFF0A21E7
:1016E0000846FFF748FF06210B20FFF744FF1021B3
:1016F0000D20FFF740FFB1210E20FFF73CFF3B21FB
:101700000F20FFF738FF25211020FFF734FF83213A
:101710001120FFF730FF13211220FFF72CFF60216B
:101720001520FFF728FF18210846FFF724FF3F2167
:101730001720FFF720FF16211920FFF71CFFFB21C0
:101740002020FFF718FFE9212320FFF714FF2A21AB
:101750002420FFF710FF00212520FFF70CFF1F2199
:101760002620FFF708FF09212E20FFF704FFC021E4
:101770003E20FFF700FF3620FFF7E9FE3320FFF79A
:10178000E6FE3420FFF7E3FE10BD0000AC170008B2
:101790000000002034000000E4110008E0170008F9
:1017A00034000020C4040000F41100080000000010
:1017B0000100000000000000000000000002000026
:1017C000000000000000000000000000010203040F
:1017D00001020304060708090204060800000000CD
:04000005080000ED02
:00000001FF
